000020803031A1  BF10C4066591C001639607C-IV 280808IOAA00002-0803-03S    ORS00            OT4ISNF13241
000020803031E1  DARVON                                                              0035    O1 13241
000020803031G1  65100085100110     Propoxyphene HCl Cap 65 MG                                  13241
000020803031J1  AAIPHARMA                     AAIPHARMA DARVON       CAP 65MG          0360902713241
000020803031L1                         CAPS00500000EA00001 0000005000002BOTTLE    005816    NN 13241
000020803031M1  0000006500000MG         002808080020101119                                     13241
000020803031P01 C0016396070000006500000MG         PROPOXYPHENE HYDROCHLORIDE              A    13241
000020803031Q01  00000263330000000052666200312050000024048000000004809620030404                13241
000020803031Q02  00000219620000000043924200212070000020916000000004183220020328                13241
000020803031Q03  00000190320000000038064200011210000018300000000003660020000512                13241
000020803031R01 K00000316000000000063200200909260000032916000000006583220031205                13241
000020803031R02 K00000300600000000060120200304040000027453000000005490620021207                13241
000020803031R03 K00000261450000000052290200203280000022838000000004567620001121                13241
000020803031T1   000000000000020010126000000001350020001207000000000000019990517               13241
000021200011A1  AMYVID100002C956103767     780000APNR00002-1200-01R5   IVL00            NT6ISN 13241
000021200011E1  AMYVID                                                              0743    B1 13241
000021200011G1  94352530002020     Florbetapir F 18 IV Soln 500-1900 MBq/ML (13.5-51 mCi/ML)   13241
000021200011J1  LILLY                         LILLY     AMYVID       INJ               7844106113241
000021200011L1                         SOLN00001000EA00001 0000000010002VIAL      173709    NN 13241
000021200011M1  0000000000000           0078000000                                             13241
000021200011P01 C9561037670000000000000           FLORBETAPIR F 18                        A    13241
000021200011P02 C0000641750000000010000ML/ML      ALCOHOL, USP                            I    13241
000021200011Q01  0000160000000016000000020120501                                               13241
000021200011R01 L0000192000000019200000020120501                                               13241
000021200011S01  0000160000000016000000020120501                                               13241
000021407011A1  JZ33B1000002C007054253     240404APNR00002-1407-01R    IJL00            NG6ISRF13241
000021407011E1  QUINIDINE GLUCONATE                                                 0037   YB1 13241
000021407011G1  35100030102005     Quinidine Gluconate Inj 80 MG/ML                            13241
000021407011J1  LILLY                         LILLY     QUINIDINE GL INJ 80MG/ML       0117001713241
000021407011L1                         SOLN00010000ML00001 0000000100002VIAL      018268    NN 13241
000021407011M1  0000008000000MG/ML      0024040404                                             13241
000021407011P01 C0070542530000008000000MG/ML      QUINIDINE GLUCONATE                     A    13241
000021407011Q01  00000017970000000179700200302040000001711000000017110020011228                13241
000021407011Q02  00000015280000000152800200011210000001415000000014150019980107                13241
000021407011Q03  00000013670000000136700199701080000001244000000012440019960103                13241
000021407011R01 K00000021560000000215600200909260000002246000000022460020030204                13241
000021407011R02 K00000020530000000205300200112280000001834000000018340020001121                13241
000021407011R03 K00000016980000000169800199801070000001641000000016410019970108                13241
000021975901A1  9U8YIG 00002C000058220C-III680800ASNR00002-1975-90R X UTDL50            NT6ESN 13241
000021975901E1  AXIRON                                                              0060    B1 13241
000021975901G1  23100030002020     Testosterone TD Soln 30 MG/ACT                              13241
000021975901J1  LILLY                         LILLY     AXIRON       SOL 30MG/ACT      71863JY113241
000021975901L1                         SOLN00090000ML00001 0000000900002PUMP BTL  164564    NN 13241
000021975901M1  0000003000000MG/ACT     0068080000                                             13241
000021975901P01 C0000582200000003000000MG/ACT     TESTOSTERONE                            A    13241
000021975901Q01  00000360580000000400644201307020000033080000000036755620130108                13241
000021975901Q02  00000301000000000334444201201310000027860000000030955620110314                13241
000021975901R01 L00000432700000000480778201307020000039696000000044106720130108                13241
000021975901R02 L00000361200000000401333201201310000033432000000037146720110314                13241
000021975901S01  00000360580000000400644201307020000033080000000036755620130108                13241
000021975901S02  00000301000000000334444201201310000027860000000030955620110314                13241
000023004751A1  JA05Y8400002C056296787     281604AOAB00002-3004-75SDX UORS00            OT4ISN 13241
000023004751E1  PROZAC WEEKLY                                                       0339  Y B1 13241
000023004751G1  58160040006530     Fluoxetine HCl Cap Delayed Release 90 MG                    13241
000023004751J1  LILLY                         LILLY     PROZAC WEEKL CAP 90MG          31274DC613241
000023004751L1                         CPDR00004000EA00001 0000000040002DISP PACK 070129    NN 13241
000023004751M1  0000009000000MG         0028160420                                             13241
000023004751P01 C0562967870000009000000MG         FLUOXETINE HCL                          A    13241
000023004751Q01  00000145200000003630000201212280000013700000000342500020111229                13241
000023004751Q02  00000129240000003231000201103240000012190000000304750020100701                13241
000023004751Q03  00000115000000002875000201001050000010846000000271150020090115                13241
000023004751R01 L00000174240000004356000201212280000016440000000411000020111229                13241
000023004751R02 L00000155090000003877250201103240000014628000000365700020100701                13241
000023004751R03 L00000138000000003450000201001050000013015000000325375020090926                13241
000023004751S01  00000145200000003630000201212280000013700000000342500020111229                13241
000023004751S02  00000129240000003231000201103240000012190000000304750020100701                13241
000023004751S03  00000115000000002875000201001050000010846000000271150020090115                13241
000023145301A1  TN51B3065726C076963412     562812AOAB00002-3145-30S X  ORS00            OT4ISNF13241
000023145301E1  AXID                                                                0462  Y B1 13241
000023145301G1  49200040000120     Nizatidine Cap 300 MG                                       13241
000023145301J1  RELIANT PHARM                 RELIANT PHAXID         CAP 300MG         0271707013241
000023145301L1                         CAPS00030000EA00001 0000000300002BOTTLE    002155    NN 13241
000023145301M1  0000030000000MG         0056281200                                             13241
000023145301P01 C0769634120000030000000MG         NIZATIDINE                              A    13241
000023145301Q01  00000149940000000499800200207030000013050000000043500020020110                13241
000023145301Q02  00000118740000000395800200110310000010804000000036013320010416                13241
000023145301Q03  00000099760000000332533200010120000009237000000030790020000512                13241
000023145301R01 A00000179930000000599767200207030000015660000000052200020020110                13241
000023145301R02 A00000142480000000474933200110310000012965000000043216720010416                13241
000023145301R03 A00000119710000000399033200010120000011084000000036946720000512                13241
000023145301T1   000000036615020030311                                                         13241
000023227301A1  AG6015000002C082248597     289200AOAB00002-3227-30R X  ORS00            NT4ISN 13241
000023227301E1  STRATTERA                                                           0597  Y B1 13241
000023227301G1  61354015100110     Atomoxetine HCl Cap 10 MG (Base Equiv)                      13241
000023227301J1  LILLY                         LILLY     STRATTERA    CAP 10MG          3642807013241
000023227301L1                         CAPS00030000EA00001 0000000300002BOTTLE    079754    NN 13241
000023227301M1  0000001000000MG         0028920000                                             13241
000023227301P01 C0822485970000001000000MG         ATOMOXETINE HYDROCHLORIDE               A    13241
000023227301Q01  00000204000000000680000201305150000018720000000062400020120927                13241
000023227301Q02  00000171750000000572500201112290000015900000000053000020110324                13241
000023227301Q03  00000145260000000484200201003020000013509000000045030020090617                13241
000023227301R01 L00000244800000000816000201305150000022464000000074880020120927                13241
000023227301R02 L00000206100000000687000201112290000019080000000063600020110324                13241
000023227301R03 L00000174310000000581033201003020000016211000000054036720090926                13241
000023227301S01  00000204000000000680000201305150000018720000000062400020120927                13241
000023227301S02  00000171750000000572500201112290000015900000000053000020110324                13241
000023227301S03  00000145260000000484200201003020000013509000000045030020090617                13241
000023228301A1  AG6015200002C082248597     289200AOAB00002-3228-30R X  ORS00            NT4ISN 13241
000023228301E1  STRATTERA                                                           0597  Y B1 13241
000023228301G1  61354015100125     Atomoxetine HCl Cap 25 MG (Base Equiv)                      13241
000023228301J1  LILLY                         LILLY     STRATTERA    CAP 25MG          3643007013241
000023228301L1                         CAPS00030000EA00001 0000000300002BOTTLE    079755    NN 13241
000023228301M1  0000002500000MG         0028920000                                             13241
000023228301P01 C0822485970000002500000MG         ATOMOXETINE HYDROCHLORIDE               A    13241
000023228301Q01  00000204000000000680000201305150000018720000000062400020120927                13241
000023228301Q02  00000171750000000572500201112290000015900000000053000020110324                13241
000023228301Q03  00000145260000000484200201003020000013509000000045030020090617                13241
000023228301R01 L00000244800000000816000201305150000022464000000074880020120927                13241
000023228301R02 L00000206100000000687000201112290000019080000000063600020110324                13241
000023228301R03 L00000174310000000581033201003020000016211000000054036720090926                13241
000023228301S01  00000204000000000680000201305150000018720000000062400020120927                13241
000023228301S02  00000171750000000572500201112290000015900000000053000020110324                13241
000023228301S03  00000145260000000484200201003020000013509000000045030020090617                13241
000023229301A1  AG6015300002C082248597     289200AOAB00002-3229-30R X  ORS00            NT4ISN 13241
000023229301E1  STRATTERA                                                           0597  Y B1 13241
000023229301G1  61354015100140     Atomoxetine HCl Cap 40 MG (Base Equiv)                      13241
000023229301J1  LILLY                         LILLY     STRATTERA    CAP 40MG          3643107013241
000023229301L1                         CAPS00030000EA00001 0000000300002BOTTLE    079756    NN 13241
000023229301M1  0000004000000MG         0028920000                                             13241
000023229301P01 C0822485970000004000000MG         ATOMOXETINE HYDROCHLORIDE               A    13241
000023229301Q01  00000221400000000738000201305150000020310000000067700020120927                13241
000023229301Q02  00000186300000000621000201112290000017250000000057500020110324                13241
000023229301Q03  00000157650000000525500201003020000014664000000048880020090617                13241
000023229301R01 L00000265680000000885600201305150000024372000000081240020120927                13241
000023229301R02 L00000223560000000745200201112290000020700000000069000020110324                13241
000023229301R03 L00000189180000000630600201003020000017597000000058656720090926                13241
000023229301S01  00000221400000000738000201305150000020310000000067700020120927                13241
000023229301S02  00000186300000000621000201112290000017250000000057500020110324                13241
000023229301S03  00000157650000000525500201003020000014664000000048880020090617                13241
000023230301A1  FRETYHT00002P999983561     281604AOAB00002-3230-30S X  ORS00            OT4ICN 13241
000023230301E1  SYMBYAX                                                             3917  Y B1 13241
000023230301G1  62995002500110     Olanzapine-Fluoxetine HCl Cap 3-25 MG                       13241
000023230301J1  LILLY                         LILLY     SYMBYAX      CAP 3-25MG        5491407013241
000023230301L1                         CAPS00030000EA00001 0000000300002BOTTLE    129137    NN 13241
000023230301M1  0000000000000           0028160420                                             13241
000023230301P01 C0562967870000002500000MG         FLUOXETINE HCL                          A    13241
000023230301P02 C1325390610000000300000MG         OLANZAPINE                              A    13241
000023230301Q01  00000294300000000981000201103240000026871000000089570020101202                13241
000023230301Q02  00000245400000000818000201003020000022722000000075740020090825                13241
000023230301Q03  00000213300000000711000200812110000020313000000067710020080724                13241
000023230301R01 L00000353160000001177200201103240000032245000000107483320101202                13241
000023230301R02 L00000294480000000981600201003020000027266000000090886720090926                13241
000023230301R03 L00000284030000000946767200908250000026663000000088876720081211                13241
000023230301S01  00000294300000000981000201103240000026871000000089570020101202                13241
000023230301S02  00000245400000000818000201003020000022722000000075740020090825                13241
000023230301S03  00000213300000000711000200812110000020313000000067710020080724                13241
000023231011A1  34R23RW00002P999983561     281604IONA00002-3231-01S X XORS00            OT6ICN 13241
000023231011E1  SYMBYAX                                                             3917    B1 13241
000023231011G1  62995002500120     Olanzapine-Fluoxetine HCl Cap 6-25 MG                       13241
000023231011J1  LILLY                         LILLY     SYMBYAX      CAP 6-25MG        39441JVS13241
000023231011L1                         CAPS00001000EA00001 0000000010002BLISTER   085477    YN 13241
000023231011M1  0000000000000           002816042020120104                                     13241
000023231011P01 C0562967870000002500000MG         FLUOXETINE HCL                          A    13241
000023231011P02 C1325390610000000600000MG         OLANZAPINE                              A    13241
000023231011Q01  00000013410000001341000201103240000001225000000122500020101202                13241
000023231011Q02  00000011180000001118000201003020000001036000000103600020090825                13241
000023231011Q03  00000009720000000972000200812110000000926000000092600020080724                13241
000023231011R01 L00000016090000001609000201103240000001470000000147000020101202                13241
000023231011R02 L00000013420000001342000201003020000001243000000124300020090926                13241
000023231011R03 L00000012950000001295000200908250000001215000000121500020081211                13241
000023231011S01  00000013410000001341000201103240000001225000000122500020101202                13241
000023231011S02  00000011180000001118000201003020000001036000000103600020090825                13241
000023231011S03  00000009720000000972000200812110000000926000000092600020080724                13241
000023231301A1  JBJKFJK00002P999983561     281604AOAB00002-3231-30S X  ORS00            OT4ICN 13241
000023231301E1  SYMBYAX                                                             3917  Y B1 13241
000023231301G1  62995002500120     Olanzapine-Fluoxetine HCl Cap 6-25 MG                       13241
000023231301J1  LILLY                         LILLY     SYMBYAX      CAP 6-25MG        3944107013241
000023231301L1                         CAPS00030000EA00001 0000000300002BOTTLE    085477    NN 13241
000023231301M1  0000000000000           0028160420                                             13241
000023231301P01 C0562967870000002500000MG         FLUOXETINE HCL                          A    13241
000023231301P02 C1325390610000000600000MG         OLANZAPINE                              A    13241
000023231301Q01  00000402300000001341000201103240000036738000000122460020101202                13241
000023231301Q02  00000335520000001118400201003020000031068000000103560020090825                13241
000023231301Q03  00000291600000000972000200812110000027774000000092580020080724                13241
000023231301R01 L00000482760000001609200201103240000044086000000146953320101202                13241
000023231301R02 L00000402620000001342067201003020000037282000000124273320090926                13241
000023231301R03 L00000388350000001294500200908250000036450000000121500020081211                13241
000023231301S01  00000402300000001341000201103240000036738000000122460020101202                13241
000023231301S02  00000335520000001118400201003020000031068000000103560020090825                13241
000023231301S03  00000291600000000972000200812110000027774000000092580020080724                13241
000023231331A1  JKLVKLV00002P999983561     281604IONA00002-3231-33S X XORS00            OT6ICN 13241
000023231331E1  SYMBYAX                                                             3917    B1 13241
000023231331G1  62995002500120     Olanzapine-Fluoxetine HCl Cap 6-25 MG                       13241
000023231331J1  LILLY                         LILLY     SYMBYAX      CAP 6-25MG        3944102813241
000023231331L1                         CAPS00100000EA00001 0000001000002BOX       085477    NN 13241
000023231331M1  0000000000000           002816042020120104                                     13241
000023231331P01 C0562967870000002500000MG         FLUOXETINE HCL                          A    13241
000023231331P02 C1325390610000000600000MG         OLANZAPINE                              A    13241
000023231331Q01  00001341000000001341000201103240000122460000000122460020101202                13241
000023231331Q02  00001118400000001118400201003020000103560000000103560020090825                13241
000023231331Q03  00000972000000000972000200812110000092580000000092580020080724                13241
000023231331R01 L00001609200000001609200201103240000146952000000146952020101202                13241
000023231331R02 L00001342080000001342080201003020000124272000000124272020090926                13241
000023231331R03 L00001294500000001294500200908250000121500000000121500020081211                13241
000023231331S01  00001341000000001341000201103240000122460000000122460020101202                13241
000023231331S02  00001118400000001118400201003020000103560000000103560020090825                13241
000023231331S03  00000972000000000972000200812110000092580000000092580020080724                13241
000023232011A1  W4RW2R500002P999983561     281604IONA00002-3232-01S X XORS00            OT6ICN 13241
000023232011E1  SYMBYAX                                                             3917    B1 13241
000023232011G1  62995002500140     Olanzapine-Fluoxetine HCl Cap 12-25 MG                      13241
000023232011J1  LILLY                         LILLY     SYMBYAX      CAP 12-25MG       39443JVS13241
000023232011L1                         CAPS00001000EA00001 0000000010002BLISTER   085479    YN 13241
000023232011M1  0000000000000           002816042020120104                                     13241
000023232011P01 C0562967870000002500000MG         FLUOXETINE HCL                          A    13241
000023232011P02 C1325390610000001200000MG         OLANZAPINE                              A    13241
000023232011Q01  00000020210000002021000201103240000001845000000184500020101202                13241
000023232011Q02  00000016850000001685000201003020000001560000000156000020090825                13241
000023232011Q03  00000014640000001464000200812110000001394000000139400020080724                13241
000023232011R01 L00000024250000002425000201103240000002214000000221400020101202                13241
000023232011R02 L00000020220000002022000201003020000001872000000187200020090926                13241
000023232011R03 L00000019500000001950000200908250000001830000000183000020081211                13241
000023232011S01  00000020210000002021000201103240000001845000000184500020101202                13241
000023232011S02  00000016850000001685000201003020000001560000000156000020090825                13241
000023232011S03  00000014640000001464000200812110000001394000000139400020080724                13241
000023232301A1  JKJKJXJ00002P999983561     281604AOAB00002-3232-30S X  ORS00            OT4ICN 13241
000023232301E1  SYMBYAX                                                             3917  Y B1 13241
000023232301G1  62995002500140     Olanzapine-Fluoxetine HCl Cap 12-25 MG                      13241
000023232301J1  LILLY                         LILLY     SYMBYAX      CAP 12-25MG       3944307013241
000023232301L1                         CAPS00030000EA00001 0000000300002BOTTLE    085479    NN 13241
000023232301M1  0000000000000           0028160420                                             13241
000023232301P01 C0562967870000002500000MG         FLUOXETINE HCL                          A    13241
000023232301P02 C1325390610000001200000MG         OLANZAPINE                              A    13241
000023232301Q01  00000606300000002021000201103240000055353000000184510020101202                13241
000023232301Q02  00000505440000001684800201003020000046800000000156000020090825                13241
000023232301Q03  00000439200000001464000200812110000041832000000139440020080724                13241
000023232301R01 L00000727560000002425200201103240000066424000000221413320101202                13241
000023232301R02 L00000606530000002021767201003020000056160000000187200020090926                13241
000023232301R03 L00000585000000001950000200908250000054900000000183000020081211                13241
000023232301S01  00000606300000002021000201103240000055353000000184510020101202                13241
000023232301S02  00000505440000001684800201003020000046800000000156000020090825                13241
000023232301S03  00000439200000001464000200812110000041832000000139440020080724                13241
000023232331A1  KJK;;PC00002P999983561     281604IONA00002-3232-33S X XORS00            OT6ICN 13241
000023232331E1  SYMBYAX                                                             3917    B1 13241
000023232331G1  62995002500140     Olanzapine-Fluoxetine HCl Cap 12-25 MG                      13241
000023232331J1  LILLY                         LILLY     SYMBYAX      CAP 12-25MG       3944302813241
000023232331L1                         CAPS00100000EA00001 0000001000002BOX       085479    NN 13241
000023232331M1  0000000000000           002816042020120104                                     13241
000023232331P01 C0562967870000002500000MG         FLUOXETINE HCL                          A    13241
000023232331P02 C1325390610000001200000MG         OLANZAPINE                              A    13241
000023232331Q01  00002021000000002021000201103240000184510000000184510020101202                13241
000023232331Q02  00001684800000001684800201003020000156000000000156000020090825                13241
000023232331Q03  00001464000000001464000200812110000139440000000139440020080724                13241
000023232331R01 L00002425200000002425200201103240000221412000000221412020101202                13241
000023232331R02 L00002021760000002021760201003020000187200000000187200020090926                13241
000023232331R03 L00001950000000001950000200908250000183000000000183000020081211                13241
000023232331S01  00002021000000002021000201103240000184510000000184510020101202                13241
000023232331S02  00001684800000001684800201003020000156000000000156000020090825                13241
000023232331S03  00001464000000001464000200812110000139440000000139440020080724                13241
000023233011A1  W4R4R5400002P999983561     281604IONA00002-3233-01S X XORS00            OT6ICN 13241
000023233011E1  SYMBYAX                                                             3917    B1 13241
000023233011G1  62995002500125     Olanzapine-Fluoxetine HCl Cap 6-50 MG                       13241
000023233011J1  LILLY                         LILLY     SYMBYAX      CAP 6-50MG        39442JVS13241
000023233011L1                         CAPS00001000EA00001 0000000010002BLISTER   085478    YN 13241
000023233011M1  0000000000000           002816042020120104                                     13241
000023233011P01 C0562967870000005000000MG         FLUOXETINE HCL                          A    13241
000023233011P02 C1325390610000000600000MG         OLANZAPINE                              A    13241
000023233011Q01  00000013410000001341000201103240000001225000000122500020101202                13241
000023233011Q02  00000011180000001118000201003020000001036000000103600020090825                13241
000023233011Q03  00000009720000000972000200812110000000926000000092600020080724                13241
000023233011R01 L00000016090000001609000201103240000001470000000147000020101202                13241
000023233011R02 L00000013420000001342000201003020000001243000000124300020090926                13241
000023233011R03 L00000012950000001295000200908250000001215000000121500020081211                13241
000023233011S01  00000013410000001341000201103240000001225000000122500020101202                13241
000023233011S02  00000011180000001118000201003020000001036000000103600020090825                13241
000023233011S03  00000009720000000972000200812110000000926000000092600020080724                13241
000023233301A1  NKLBVJK00002P999983561     281604AOAB00002-3233-30S X  ORS00            OT4ICN 13241
000023233301E1  SYMBYAX                                                             3917  Y B1 13241
000023233301G1  62995002500125     Olanzapine-Fluoxetine HCl Cap 6-50 MG                       13241
000023233301J1  LILLY                         LILLY     SYMBYAX      CAP 6-50MG        3944207013241
000023233301L1                         CAPS00030000EA00001 0000000300002BOTTLE    085478    NN 13241
000023233301M1  0000000000000           0028160420                                             13241
000023233301P01 C0562967870000005000000MG         FLUOXETINE HCL                          A    13241
000023233301P02 C1325390610000000600000MG         OLANZAPINE                              A    13241
000023233301Q01  00000402300000001341000201103240000036738000000122460020101202                13241
000023233301Q02  00000335520000001118400201003020000031068000000103560020090825                13241
000023233301Q03  00000291600000000972000200812110000027774000000092580020080724                13241
000023233301R01 L00000482760000001609200201103240000044086000000146953320101202                13241
000023233301R02 L00000402620000001342067201003020000037282000000124273320090926                13241
000023233301R03 L00000388350000001294500200908250000036450000000121500020081211                13241
000023233301S01  00000402300000001341000201103240000036738000000122460020101202                13241
000023233301S02  00000335520000001118400201003020000031068000000103560020090825                13241
000023233301S03  00000291600000000972000200812110000027774000000092580020080724                13241
000023233331A1  GL;B;GK00002P999983561     281604IONA00002-3233-33S X XORS00            OT6ICN 13241
000023233331E1  SYMBYAX                                                             3917    B1 13241
000023233331G1  62995002500125     Olanzapine-Fluoxetine HCl Cap 6-50 MG                       13241
000023233331J1  LILLY                         LILLY     SYMBYAX      CAP 6-50MG        3944202813241
000023233331L1                         CAPS00100000EA00001 0000001000002BOX       085478    NN 13241
000023233331M1  0000000000000           002816042020120104                                     13241
000023233331P01 C0562967870000005000000MG         FLUOXETINE HCL                          A    13241
000023233331P02 C1325390610000000600000MG         OLANZAPINE                              A    13241
000023233331Q01  00001341000000001341000201103240000122460000000122460020101202                13241
000023233331Q02  00001118400000001118400201003020000103560000000103560020090825                13241
000023233331Q03  00000972000000000972000200812110000092580000000092580020080724                13241
000023233331R01 L00001609200000001609200201103240000146952000000146952020101202                13241
000023233331R02 L00001342080000001342080201003020000124272000000124272020090926                13241
000023233331R03 L00001294500000001294500200908250000121500000000121500020081211                13241
000023233331S01  00001341000000001341000201103240000122460000000122460020101202                13241
000023233331S02  00001118400000001118400201003020000103560000000103560020090825                13241
000023233331S03  00000972000000000972000200812110000092580000000092580020080724                13241
000023234011A1  4R234R500002P999983561     281604AOAB00002-3234-01S X XORS00            OT4ICN 13241
000023234011E1  SYMBYAX                                                             3917    B1 13241
000023234011G1  62995002500145     Olanzapine-Fluoxetine HCl Cap 12-50 MG                      13241
000023234011J1  LILLY                         LILLY     SYMBYAX      CAP 12-50MG       39444JVS13241
000023234011L1                         CAPS00001000EA00001 0000000010002BLISTER   085480    YN 13241
000023234011M1  0000000000000           0028160420                                             13241
000023234011P01 C0562967870000005000000MG         FLUOXETINE HCL                          A    13241
000023234011P02 C1325390610000001200000MG         OLANZAPINE                              A    13241
000023234011Q01  00000020210000002021000201103240000001845000000184500020101202                13241
000023234011Q02  00000016850000001685000201003020000001560000000156000020090825                13241
000023234011Q03  00000014640000001464000200812110000001394000000139400020080724                13241
000023234011R01 L00000024250000002425000201103240000002214000000221400020101202                13241
000023234011R02 L00000020220000002022000201003020000001872000000187200020090926                13241
000023234011R03 L00000019500000001950000200908250000001830000000183000020081211                13241
000023234011S01  00000020210000002021000201103240000001845000000184500020101202                13241
000023234011S02  00000016850000001685000201003020000001560000000156000020090825                13241
000023234011S03  00000014640000001464000200812110000001394000000139400020080724                13241
000023234301A1  JVGFJPF00002P999983561     281604AOAB00002-3234-30S X  ORS00            OT4ICN 13241
000023234301E1  SYMBYAX                                                             3917  Y B1 13241
000023234301G1  62995002500145     Olanzapine-Fluoxetine HCl Cap 12-50 MG                      13241
000023234301J1  LILLY                         LILLY     SYMBYAX      CAP 12-50MG       3944407013241
000023234301L1                         CAPS00030000EA00001 0000000300002BOTTLE    085480    NN 13241
000023234301M1  0000000000000           0028160420                                             13241
000023234301P01 C0562967870000005000000MG         FLUOXETINE HCL                          A    13241
000023234301P02 C1325390610000001200000MG         OLANZAPINE                              A    13241
000023234301Q01  00000606300000002021000201103240000055353000000184510020101202                13241
000023234301Q02  00000505440000001684800201003020000046800000000156000020090825                13241
000023234301Q03  00000439200000001464000200812110000041832000000139440020080724                13241
000023234301R01 L00000727560000002425200201103240000066424000000221413320101202                13241
000023234301R02 L00000606530000002021767201003020000056160000000187200020090926                13241
000023234301R03 L00000585000000001950000200908250000054900000000183000020081211                13241
000023234301S01  00000606300000002021000201103240000055353000000184510020101202                13241
000023234301S02  00000505440000001684800201003020000046800000000156000020090825                13241
000023234301S03  00000439200000001464000200812110000041832000000139440020080724                13241
000023234331A1  ML;CVVB00002P999983561     281604AOAB00002-3234-33S X XORS00            OT4ICN 13241
000023234331E1  SYMBYAX                                                             3917   YB1 13241
000023234331G1  62995002500145     Olanzapine-Fluoxetine HCl Cap 12-50 MG                      13241
000023234331J1  LILLY                         LILLY     SYMBYAX      CAP 12-50MG       3944402813241
000023234331L1                         CAPS00100000EA00001 0000001000002BOX       085480    NN 13241
000023234331M1  0000000000000           0028160420                                             13241
000023234331P01 C0562967870000005000000MG         FLUOXETINE HCL                          A    13241
000023234331P02 C1325390610000001200000MG         OLANZAPINE                              A    13241
000023234331Q01  00002021000000002021000201103240000184510000000184510020101202                13241
000023234331Q02  00001684800000001684800201003020000156000000000156000020090825                13241
000023234331Q03  00001464000000001464000200812110000139440000000139440020080724                13241
000023234331R01 L00002425200000002425200201103240000221412000000221412020101202                13241
000023234331R02 L00002021760000002021760201003020000187200000000187200020090926                13241
000023234331R03 L00001950000000001950000200908250000183000000000183000020081211                13241
000023234331S01  00002021000000002021000201103240000184510000000184510020101202                13241
000023234331S02  00001684800000001684800201003020000156000000000156000020090825                13241
000023234331S03  00001464000000001464000200812110000139440000000139440020080724                13241
000023235601A1  ZXCASDW00002C136434349     281604AONR00002-3235-60RDX  ORS50            NT6ISN 13241
000023235601E1  CYMBALTA                                                            0609  Y B1 13241
000023235601G1  58180025106720     Duloxetine HCl Enteric Coated Pellets Cap 20 MG             13241
000023235601J1  LILLY                         LILLY     CYMBALTA     CAP 20MG          4146404913241
000023235601L1                         CPEP00060000EA00001 0000000600002BOTTLE    088908    NN 13241
000023235601M1  0000002000000MG         0028160416                                             13241
000023235601P01 C1364343490000002000000MG         DULOXETINE HYDROCHLORIDE                A    13241
000023235601P02 C0008602200000000000000           FD&C BLUE #2 (INDIGOTINE)               I    13241
000023235601Q01  00000388800000000648000201306280000035370000000058950020121212                13241
000023235601Q02  00000323100000000538500201206270000029640000000049400020111220                13241
000023235601Q03  00000271800000000453000201107010000024935000000041558320100903                13241
000023235601R01 L00000466560000000777600201306280000042444000000070740020121212                13241
000023235601R02 L00000387720000000646200201206270000035568000000059280020111220                13241
000023235601R03 L00000326160000000543600201107010000029922000000049870020100903                13241
000023235601S01  00000388800000000648000201306280000035370000000058950020121212                13241
000023235601S02  00000323100000000538500201206270000029640000000049400020111220                13241
000023235601S03  00000271800000000453000201107010000024935000000041558320100903                13241
000023237011A1  QTILHAS00002C136434349     281604IONR00002-3237-01RDX XORS00            NT6ISN 13241
000023237011E1  CYMBALTA                                                            0609    B1 13241
000023237011G1  58180025106750     Duloxetine HCl Enteric Coated Pellets Cap 60 MG             13241
000023237011J1  LILLY                         LILLY     CYMBALTA     CAP 60MG          41466JVS13241
000023237011L1                         CPEP00001000EA00001 0000000010002BLISTER   088909    YN 13241
000023237011M1  0000006000000MG         002816041620120531                                     13241
000023237011P01 C1364343490000006000000MG         DULOXETINE HYDROCHLORIDE                A    13241
000023237011P02 C0008602200000000000000           FD&C BLUE #2 (INDIGOTINE)               I    13241
000023237011Q01  00000004310000000431000200911170000000400000000040000020090312                13241
000023237011Q02  00000003740000000374400200805130000000353000000035333020070905                13241
000023237011Q03  00000003360000000336400200612010000000320000000032030020060228                13241
000023237011R01 L00000005170000000517000200911170000000480000000048000020090926                13241
000023237011R02 L00000005000000000500000200903120000000468000000046800020080513                13241
000023237011R03 L00000004420000000441660200709050000000421000000042050020061201                13241
000023237011S01  00000004310000000431000200911170000000400000000040000020090312                13241
000023237011S02  00000003740000000374400200805130000000353000000035333020070905                13241
000023237041A1  KJHKYKH00002C136434349     281604IONR00002-3237-04RDX  ORS00            NT6ISN 13241
000023237041C1                                00002327004100002-3270-0410181                   13241
000023237041E1  CYMBALTA                                                            0609    B1 13241
000023237041G1  58180025106750     Duloxetine HCl Enteric Coated Pellets Cap 60 MG             13241
000023237041J1  LILLY                         LILLY     CYMBALTA     CAP 60MG          4146600413241
000023237041L1                         CPEP01000000EA00001 0000010000002BOTTLE    088909    NN 13241
000023237041M1  0000006000000MG         002816041620100630                                     13241
000023237041P01 C1364343490000006000000MG         DULOXETINE HYDROCHLORIDE                A    13241
000023237041P02 C0008602200000000000000           FD&C BLUE #2 (INDIGOTINE)               I    13241
000023237041Q01  00004314000000000431400200911170000399700000000039970020090312                13241
000023237041Q02  00003744000000000374400200805130000353333000000035333320070905                13241
000023237041Q03  00003364000000000336400200612010000320300000000032030020060228                13241
000023237041R01 L00005176800000000517680200911170000479640000000047964020090926                13241
000023237041R02 L00004996250000000499625200903120000468000000000046800020080513                13241
000023237041R03 L00004416660000000441666200709050000420500000000042050020061201                13241
000023237041S01  00004314000000000431400200911170000399700000000039970020090312                13241
000023237041S02  00003744000000000374400200805130000353333000000035333320070905                13241
000023237301A1  CDFVNGB00002C136434349     281604IONR00002-3237-30RDX  ORS00            NT6ISN 13241
000023237301E1  CYMBALTA                                                            0609    B1 13241
000023237301G1  58180025106750     Duloxetine HCl Enteric Coated Pellets Cap 60 MG             13241
000023237301J1  LILLY                         LILLY     CYMBALTA     CAP 60MG          4146607013241
000023237301L1                         CPEP00030000EA00001 0000000300002BOTTLE    088909  04NN 13241
000023237301M1  0000006000000MG         002816041620100215                                     13241
000023237301P01 C1364343490000006000000MG         DULOXETINE HYDROCHLORIDE                A    13241
000023237301P02 C0008602200000000000000           FD&C BLUE #2 (INDIGOTINE)               I    13241
000023237301Q01  00000129420000000431400200911170000011991000000039970020090312                13241
000023237301Q02  00000112320000000374400200805130000010600000000035333320070905                13241
000023237301Q03  00000100920000000336400200612010000009609000000032030020060228                13241
000023237301R01 L00000155300000000517667200911170000014389000000047963320090926                13241
000023237301R02 L00000149890000000499633200903120000014040000000046800020080513                13241
000023237301R03 L00000132500000000441667200709050000012615000000042050020061201                13241
000023237301S01  00000129420000000431400200911170000011991000000039970020090312                13241
000023237301S02  00000112320000000374400200805130000010600000000035333320070905                13241
000023237331A1  HHNNJJM00002C136434349     281604IONR00002-3237-33RDX XORS00            NT6ISN 13241
000023237331E1  CYMBALTA                                                            0609    B1 13241
000023237331G1  58180025106750     Duloxetine HCl Enteric Coated Pellets Cap 60 MG             13241
000023237331J1  LILLY                         LILLY     CYMBALTA     CAP 60MG          4146602813241
000023237331L1                         CPEP00100000EA00001 0000001000002BOX       088909    NN 13241
000023237331M1  0000006000000MG         002816041620120531                                     13241
000023237331P01 C1364343490000006000000MG         DULOXETINE HYDROCHLORIDE                A    13241
000023237331P02 C0008602200000000000000           FD&C BLUE #2 (INDIGOTINE)               I    13241
000023237331Q01  00000431400000000431400200911170000039970000000039970020090312                13241
000023237331Q02  00000374400000000374400200805130000035333000000035333020070905                13241
000023237331Q03  00000336400000000336400200612010000032030000000032030020060228                13241
000023237331R01 L00000517680000000517680200911170000047964000000047964020090926                13241
000023237331R02 L00000499630000000499630200903120000046800000000046800020080513                13241
000023237331R03 L00000441660000000441660200709050000042050000000042050020061201                13241
000023237331S01  00000431400000000431400200911170000039970000000039970020090312                13241
000023237331S02  00000374400000000374400200805130000035333000000035333020070905                13241
000023238301A1  AG6015400002C082248597     289200AOAB00002-3238-30R X  ORS00            NT4ISN 13241
000023238301E1  STRATTERA                                                           0597  Y B1 13241
000023238301G1  61354015100118     Atomoxetine HCl Cap 18 MG (Base Equiv)                      13241
000023238301J1  LILLY                         LILLY     STRATTERA    CAP 18MG          3642907013241
000023238301L1                         CAPS00030000EA00001 0000000300002BOTTLE    079757    NN 13241
000023238301M1  0000001800000MG         0028920000                                             13241
000023238301P01 C0822485970000001800000MG         ATOMOXETINE HYDROCHLORIDE               A    13241
000023238301Q01  00000204000000000680000201305150000018720000000062400020120927                13241
000023238301Q02  00000171750000000572500201112290000015900000000053000020110324                13241
000023238301Q03  00000145260000000484200201003020000013509000000045030020090617                13241
000023238301R01 L00000244800000000816000201305150000022464000000074880020120927                13241
000023238301R02 L00000206100000000687000201112290000019080000000063600020110324                13241
000023238301R03 L00000174310000000581033201003020000016211000000054036720090926                13241
000023238301S01  00000204000000000680000201305150000018720000000062400020120927                13241
000023238301S02  00000171750000000572500201112290000015900000000053000020110324                13241
000023238301S03  00000145260000000484200201003020000013509000000045030020090617                13241
000023239301A1  AG6015500002C082248597     289200AOAB00002-3239-30R X  ORS00            NT4ISN 13241
000023239301E1  STRATTERA                                                           0597  Y B1 13241
000023239301G1  61354015100160     Atomoxetine HCl Cap 60 MG (Base Equiv)                      13241
000023239301J1  LILLY                         LILLY     STRATTERA    CAP 60MG          3643207013241
000023239301L1                         CAPS00030000EA00001 0000000300002BOTTLE    079758    NN 13241
000023239301M1  0000006000000MG         0028920000                                             13241
000023239301P01 C0822485970000006000000MG         ATOMOXETINE HYDROCHLORIDE               A    13241
000023239301Q01  00000221400000000738000201305150000020310000000067700020120927                13241
000023239301Q02  00000186300000000621000201112290000017250000000057500020110324                13241
000023239301Q03  00000157650000000525500201003020000014664000000048880020090617                13241
000023239301R01 L00000265680000000885600201305150000024372000000081240020120927                13241
000023239301R02 L00000223560000000745200201112290000020700000000069000020110324                13241
000023239301R03 L00000189180000000630600201003020000017597000000058656720090926                13241
000023239301S01  00000221400000000738000201305150000020310000000067700020120927                13241
000023239301S02  00000186300000000621000201112290000017250000000057500020110324                13241
000023239301S03  00000157650000000525500201003020000014664000000048880020090617                13241
000023240011A1  TDRTYFU00002C136434349     281604AONR00002-3240-01RDX XORS12            NT6ISN 13241
000023240011E1  CYMBALTA                                                            0609    B1 13241
000023240011G1  58180025106730     Duloxetine HCl Enteric Coated Pellets Cap 30 MG             13241
000023240011J1  LILLY                         LILLY     CYMBALTA     CAP 30MG          41465JVS13241
000023240011L1                         CPEP00001000EA00001 0000000010002BLISTER   088910    YN 13241
000023240011M1  0000003000000MG         0028160416                                             13241
000023240011P01 C1364343490000003000000MG         DULOXETINE HYDROCHLORIDE                A    13241
000023240011P02 C0008602200000000000000           FD&C BLUE #2 (INDIGOTINE)               I    13241
000023240011Q01  00000007270000000727000201306280000000662000000066200020121212                13241
000023240011Q02  00000006040000000604000201206270000000554000000055400020111220                13241
000023240011Q03  00000005080000000508000201107010000000466000000046600020100903                13241
000023240011R01 L00000008720000000872000201306280000000794000000079400020121212                13241
000023240011R02 L00000007250000000725000201206270000000665000000066500020111220                13241
000023240011R03 L00000006100000000610000201107010000000559000000055900020100903                13241
000023240011S01  00000007270000000727000201306280000000662000000066200020121212                13241
000023240011S02  00000006040000000604000201206270000000554000000055400020111220                13241
000023240011S03  00000005080000000508000201107010000000466000000046600020100903                13241
000023240301A1  RRTTYYU00002C136434349     281604AONR00002-3240-30RDX  ORS12            NT6ISN 13241
000023240301E1  CYMBALTA                                                            0609  Y B1 13241
000023240301G1  58180025106730     Duloxetine HCl Enteric Coated Pellets Cap 30 MG             13241
000023240301J1  LILLY                         LILLY     CYMBALTA     CAP 30MG          4146507013241
000023240301L1                         CPEP00030000EA00001 0000000300002BOTTLE    088910  90NN 13241
000023240301M1  0000003000000MG         0028160416                                             13241
000023240301P01 C1364343490000003000000MG         DULOXETINE HYDROCHLORIDE                A    13241
000023240301P02 C0008602200000000000000           FD&C BLUE #2 (INDIGOTINE)               I    13241
000023240301Q01  00000218100000000727000201306280000019845000000066150020121212                13241
000023240301Q02  00000181200000000604000201206270000016620000000055400020111220                13241
000023240301Q03  00000152400000000508000201107010000013980000000046600020100903                13241
000023240301R01 L00000261720000000872400201306280000023814000000079380020121212                13241
000023240301R02 L00000217440000000724800201206270000019944000000066480020111220                13241
000023240301R03 L00000182880000000609600201107010000016776000000055920020100903                13241
000023240301S01  00000218100000000727000201306280000019845000000066150020121212                13241
000023240301S02  00000181200000000604000201206270000016620000000055400020111220                13241
000023240301S03  00000152400000000508000201107010000013980000000046600020100903                13241
000023240331A1  LLIIDDR00002C136434349     281604AONR00002-3240-33RDX XORS12            NT6ISN 13241
000023240331E1  CYMBALTA                                                            0609   YB1 13241
000023240331G1  58180025106730     Duloxetine HCl Enteric Coated Pellets Cap 30 MG             13241
000023240331J1  LILLY                         LILLY     CYMBALTA     CAP 30MG          4146502813241
000023240331L1                         CPEP00100000EA00001 0000001000002BOX       088910    NN 13241
000023240331M1  0000003000000MG         0028160416                                             13241
000023240331P01 C1364343490000003000000MG         DULOXETINE HYDROCHLORIDE                A    13241
000023240331P02 C0008602200000000000000           FD&C BLUE #2 (INDIGOTINE)               I    13241
000023240331Q01  00000727000000000727000201306280000066150000000066150020121212                13241
000023240331Q02  00000604000000000604000201206270000055400000000055400020111220                13241
000023240331Q03  00000508000000000508000201107010000046600000000046600020100903                13241
000023240331R01 L00000872400000000872400201306280000079380000000079380020121212                13241
000023240331R02 L00000724800000000724800201206270000066480000000066480020111220                13241
000023240331R03 L00000609600000000609600201107010000055920000000055920020100903                13241
000023240331S01  00000727000000000727000201306280000066150000000066150020121212                13241
000023240331S02  00000604000000000604000201206270000055400000000055400020111220                13241
000023240331S03  00000508000000000508000201107010000046600000000046600020100903                13241
000023240901A1  QWED2  00002C136434349     281604AONR00002-3240-90RDX  ORS12            NT6ISN 13241
000023240901E1  CYMBALTA                                                            0609  Y B1 13241
000023240901G1  58180025106730     Duloxetine HCl Enteric Coated Pellets Cap 30 MG             13241
000023240901J1  LILLY                         LILLY     CYMBALTA     CAP 30MG          4146596613241
000023240901L1                         CPEP00090000EA00001 0000000900002BOTTLE    08891030  NN 13241
000023240901M1  0000003000000MG         0028160416                                             13241
000023240901P01 C1364343490000003000000MG         DULOXETINE HYDROCHLORIDE                A    13241
000023240901P02 C0008602200000000000000           FD&C BLUE #2 (INDIGOTINE)               I    13241
000023240901Q01  00000654300000000727000201306280000059535000000066150020121212                13241
000023240901Q02  00000543600000000604000201206270000049860000000055400020111220                13241
000023240901Q03  00000457200000000508000201107010000041940000000046600020100903                13241
000023240901R01 L00000785160000000872400201306280000071442000000079380020121212                13241
000023240901R02 L00000652320000000724800201206270000059832000000066480020111220                13241
000023240901R03 L00000548640000000609600201107010000050328000000055920020100903                13241
000023240901S01  00000654300000000727000201306280000059535000000066150020121212                13241
000023240901S02  00000543600000000604000201206270000049860000000055400020111220                13241
000023240901S03  00000457200000000508000201107010000041940000000046600020100903                13241
000023250301A1  JG6TTYF00002C082248597     289200AOAB00002-3250-30R X  ORS00            NT4ISN 13241
000023250301E1  STRATTERA                                                           0597  Y B1 13241
000023250301G1  61354015100170     Atomoxetine HCl Cap 80 MG (Base Equiv)                      13241
000023250301J1  LILLY                         LILLY     STRATTERA    CAP 80MG          4912807013241
000023250301L1                         CAPS00030000EA00001 0000000300002BOTTLE    100375    NN 13241
000023250301M1  0000008000000MG         0028920000                                             13241
000023250301P01 C0822485970000008000000MG         ATOMOXETINE HYDROCHLORIDE               A    13241
000023250301P02 C0008602200000000000000           FD&C BLUE #2 (INDIGOTINE)               I    13241
000023250301Q01  00000239100000000797000201305150000021930000000073100020120927                13241
000023250301Q02  00000201240000000670800201112290000018630000000062100020110324                13241
000023250301Q03  00000170100000000567000201003020000015822000000052740020090617                13241
000023250301R01 L00000286920000000956400201305150000026316000000087720020120927                13241
000023250301R02 L00000241490000000804967201112290000022356000000074520020110324                13241
000023250301R03 L00000204120000000680400201003020000018986000000063286720090926                13241
000023250301S01  00000239100000000797000201305150000021930000000073100020120927                13241
000023250301S02  00000201240000000670800201112290000018630000000062100020110324                13241
000023250301S03  00000170100000000567000201003020000015822000000052740020090617                13241
000023251301A1  DF3E45T00002C082248597     289200AOAB00002-3251-30R X  ORS00            NT4ISN 13241
000023251301E1  STRATTERA                                                           0597  Y B1 13241
000023251301G1  61354015100180     Atomoxetine HCl Cap 100 MG (Base Equiv)                     13241
000023251301J1  LILLY                         LILLY     STRATTERA    CAP 100MG         4912907013241
000023251301L1                         CAPS00030000EA00001 0000000300002BOTTLE    100376    NN 13241
000023251301M1  0000010000000MG         0028920000                                             13241
000023251301P01 C0822485970000010000000MG         ATOMOXETINE HYDROCHLORIDE               A    13241
000023251301P02 C0008602200000000000000           FD&C BLUE #2 (INDIGOTINE)               I    13241
000023251301Q01  00000239100000000797000201305150000021930000000073100020120927                13241
000023251301Q02  00000201240000000670800201112290000018630000000062100020110324                13241
000023251301Q03  00000170100000000567000201003020000015822000000052740020090617                13241
000023251301R01 L00000286920000000956400201305150000026316000000087720020120927                13241
000023251301R02 L00000241490000000804967201112290000022356000000074520020110324                13241
000023251301R03 L00000204120000000680400201003020000018986000000063286720090926                13241
000023251301S01  00000239100000000797000201305150000021930000000073100020120927                13241
000023251301S02  00000201240000000670800201112290000018630000000062100020110324                13241
000023251301S03  00000170100000000567000201003020000015822000000052740020090617                13241
000023270011A1  PWOIAMB00002C136434349     281604AONR00002-3270-01RDX XORS11            NT6ISN 13241
000023270011E1  CYMBALTA                                                            0609    B1 13241
000023270011G1  58180025106750     Duloxetine HCl Enteric Coated Pellets Cap 60 MG             13241
000023270011J1  LILLY                         LILLY     CYMBALTA     CAP 60MG          41466JVS13241
000023270011L1                         CPEP00001000EA00001 0000000010002BLISTER   088909    YN 13241
000023270011M1  0000006000000MG         0028160416                                             13241
000023270011P01 C1364343490000006000000MG         DULOXETINE HYDROCHLORIDE                A    13241
000023270011P02 C0008602200000000000000           FD&C BLUE #2 (INDIGOTINE)               I    13241
000023270011Q01  00000007270000000727000201306280000000662000000066200020121212                13241
000023270011Q02  00000006040000000604000201206270000000554000000055400020111220                13241
000023270011Q03  00000005080000000508000201107010000000466000000046600020100903                13241
000023270011R01 L00000008720000000872000201306280000000794000000079400020121212                13241
000023270011R02 L00000007250000000725000201206270000000665000000066500020111220                13241
000023270011R03 L00000006100000000610000201107010000000559000000055900020100903                13241
000023270011S01  00000007270000000727000201306280000000662000000066200020121212                13241
000023270011S02  00000006040000000604000201206270000000554000000055400020111220                13241
000023270011S03  00000005080000000508000201107010000000466000000046600020100903                13241
000023270041A1  GTKUYFR00002C136434349     281604AONR00002-3270-04RDX  ORS11            NT6ISN 13241
000023270041C1  00002323704100002-3237-0410181                                                 13241
000023270041E1  CYMBALTA                                                            0609  Y B1 13241
000023270041G1  58180025106750     Duloxetine HCl Enteric Coated Pellets Cap 60 MG             13241
000023270041J1  LILLY                         LILLY     CYMBALTA     CAP 60MG          4146600413241
000023270041L1                         CPEP01000000EA00001 0000010000002BOTTLE    08890930  NN 13241
000023270041M1  0000006000000MG         0028160416                                             13241
000023270041P01 C1364343490000006000000MG         DULOXETINE HYDROCHLORIDE                A    13241
000023270041P02 C0008602200000000000000           FD&C BLUE #2 (INDIGOTINE)               I    13241
000023270041Q01  00007270000000000727000201306280000661500000000066150020121212                13241
000023270041Q02  00006040000000000604000201206270000554000000000055400020111220                13241
000023270041Q03  00005080000000000508000201107010000466000000000046600020100903                13241
000023270041R01 L00008724000000000872400201306280000793800000000079380020121212                13241
000023270041R02 L00007248000000000724800201206270000664800000000066480020111220                13241
000023270041R03 L00006096000000000609600201107010000559200000000055920020100903                13241
000023270041S01  00007270000000000727000201306280000661500000000066150020121212                13241
000023270041S02  00006040000000000604000201206270000554000000000055400020111220                13241
000023270041S03  00005080000000000508000201107010000466000000000046600020100903                13241
000023270301A1  GFJYTHF00002C136434349     281604AONR00002-3270-30RDX  ORS11            NT6ISN 13241
000023270301E1  CYMBALTA                                                            0609  Y B1 13241
000023270301G1  58180025106750     Duloxetine HCl Enteric Coated Pellets Cap 60 MG             13241
000023270301J1  LILLY                         LILLY     CYMBALTA     CAP 60MG          4146607013241
000023270301L1                         CPEP00030000EA00001 0000000300002BOTTLE    088909  04NN 13241
000023270301M1  0000006000000MG         0028160416                                             13241
000023270301P01 C1364343490000006000000MG         DULOXETINE HYDROCHLORIDE                A    13241
000023270301P02 C0008602200000000000000           FD&C BLUE #2 (INDIGOTINE)               I    13241
000023270301Q01  00000218100000000727000201306280000019845000000066150020121212                13241
000023270301Q02  00000181200000000604000201206270000016620000000055400020111220                13241
000023270301Q03  00000152400000000508000201107010000013980000000046600020100903                13241
000023270301R01 L00000261720000000872400201306280000023814000000079380020121212                13241
000023270301R02 L00000217440000000724800201206270000019944000000066480020111220                13241
000023270301R03 L00000182880000000609600201107010000016776000000055920020100903                13241
000023270301S01  00000218100000000727000201306280000019845000000066150020121212                13241
000023270301S02  00000181200000000604000201206270000016620000000055400020111220                13241
000023270301S03  00000152400000000508000201107010000013980000000046600020100903                13241
000023270331A1  EWRHEA 00002C136434349     281604AONR00002-3270-33RDX XORS11            NT6ISN 13241
000023270331E1  CYMBALTA                                                            0609    B1 13241
000023270331G1  58180025106750     Duloxetine HCl Enteric Coated Pellets Cap 60 MG             13241
000023270331J1  LILLY                         LILLY     CYMBALTA     CAP 60MG          4146602813241
000023270331L1                         CPEP00100000EA00001 0000001000002BOX       088909    NN 13241
000023270331M1  0000006000000MG         0028160416                                             13241
000023270331P01 C1364343490000006000000MG         DULOXETINE HYDROCHLORIDE                A    13241
000023270331P02 C0008602200000000000000           FD&C BLUE #2 (INDIGOTINE)               I    13241
000023270331Q01  00000727000000000727000201306280000066150000000066150020121212                13241
000023270331Q02  00000604000000000604000201206270000055400000000055400020111220                13241
000023270331Q03  00000508000000000508000201107010000046600000000046600020100903                13241
000023270331R01 L00000872400000000872400201306280000079380000000079380020121212                13241
000023270331R02 L00000724800000000724800201206270000066480000000066480020111220                13241
000023270331R03 L00000609600000000609600201107010000055920000000055920020100903                13241
000023270331S01  00000727000000000727000201306280000066150000000066150020121212                13241
000023270331S02  00000604000000000604000201206270000055400000000055400020111220                13241
000023270331S03  00000508000000000508000201107010000046600000000046600020100903                13241
000024112011A1  YUTTFDY00002C132539061     281608IOAB00002-4112-01SPX XORS00            OT4ISN 13241
000024112011E1  ZYPREXA                                                             0604    B1 13241
000024112011G1  59157060000305     Olanzapine Tab 2.5 MG                                       13241
000024112011J1  LILLY                         LILLY     ZYPREXA      TAB 2.5MG   ZYPR2518717JVS13241
000024112011L1                         TABS00001000EA00001 0000000010002BLISTER   050838    YN 13241
000024112011M1  0000000250000MG         002816080420120822                                     13241
000024112011P01 C1325390610000000250000MG         OLANZAPINE                              A    13241
000024112011Q01  00000010370000001037000201108110000000947000000094700020110324                13241
000024112011Q02  00000008650000000865000201012020000000790000000079000020100302                13241
000024112011Q03  00000007310000000731000200908250000000686000000068600020081211                13241
000024112011R01 L00000012440000001244000201108110000001136000000113600020110324                13241
000024112011R02 L00000010380000001038000201012020000000948000000094800020100302                13241
000024112011R03 L00000008770000000877000200909260000000914000000091400020090825                13241
000024112011S01  00000010370000001037000201108110000000947000000094700020110324                13241
000024112011S02  00000008650000000865000201012020000000790000000079000020100302                13241
000024112011S03  00000007310000000731000200908250000000686000000068600020081211                13241
000024112041A1  AF55X8000002C132539061     281608IOAB00002-4112-04SPX  ORS00            OT4ISN 13241
000024112041E1  ZYPREXA                                                             0604    B1 13241
000024112041G1  59157060000305     Olanzapine Tab 2.5 MG                                       13241
000024112041J1  LILLY                         LILLY     ZYPREXA      TAB 2.5MG   ZYPR251871700413241
000024112041L1                         TABS01000000EA00001 0000010000002BOTTLE    05083830  NN 13241
000024112041M1  0000000250000MG         002816080420120822                                     13241
000024112041P01 C1325390610000000250000MG         OLANZAPINE                              A    13241
000024112041Q01  00010368000000001036800201108110000946800000000094680020110324                13241
000024112041Q02  00008645000000000864500201012020000789500000000078950020100302                13241
000024112041Q03  00007310000000000731000200908250000686200000000068620020081211                13241
000024112041R01 L00012441600000001244160201108110001136160000000113616020110324                13241
000024112041R02 L00010374000000001037400201012020000947400000000094740020100302                13241
000024112041R03 L00008772000000000877200200909260000913750000000091375020090825                13241
000024112041S01  00010368000000001036800201108110000946800000000094680020110324                13241
000024112041S02  00008645000000000864500201012020000789500000000078950020100302                13241
000024112041S03  00007310000000000731000200908250000686200000000068620020081211                13241
000024112301A1  FDLJERI00002C132539061     281608AOAB00002-4112-30SPX  ORS00            OT4ISN 13241
000024112301E1  ZYPREXA                                                             0604  Y B1 13241
000024112301G1  59157060000305     Olanzapine Tab 2.5 MG                                       13241
000024112301J1  LILLY                         LILLY     ZYPREXA      TAB 2.5MG   ZYPR251871707013241
000024112301L1                         TABS00030000EA00001 0000000300002BOTTLE    050838  04NN 13241
000024112301M1  0000000250000MG         0028160804                                             13241
000024112301P01 C1325390610000000250000MG         OLANZAPINE                              A    13241
000024112301Q01  00000311040000001036800201108110000028404000000094680020110324                13241
000024112301Q02  00000259350000000864500201012020000023685000000078950020100302                13241
000024112301Q03  00000219300000000731000200908250000020586000000068620020081211                13241
000024112301R01 L00000373250000001244167201108110000034085000000113616720110324                13241
000024112301R02 L00000311220000001037400201012020000028422000000094740020100302                13241
000024112301R03 L00000263160000000877200200909260000027413000000091376720090825                13241
000024112301S01  00000311040000001036800201108110000028404000000094680020110324                13241
000024112301S02  00000259350000000864500201012020000023685000000078950020100302                13241
000024112301S03  00000219300000000731000200908250000020586000000068620020081211                13241
000024112331A1  AF55X8500002C132539061     281608IOAB00002-4112-33SPX XORS00            OT4ISN 13241
000024112331E1  ZYPREXA                                                             0604    B1 13241
000024112331G1  59157060000305     Olanzapine Tab 2.5 MG                                       13241
000024112331J1  LILLY                         LILLY     ZYPREXA      TAB 2.5MG   ZYPR251871702813241
000024112331L1                         TABS00100000EA00001 0000001000002BOX       050838    NN 13241
000024112331M1  0000000250000MG         002816080420120822                                     13241
000024112331P01 C1325390610000000250000MG         OLANZAPINE                              A    13241
000024112331Q01  00001036800000001036800201108110000094680000000094680020110324                13241
000024112331Q02  00000864500000000864500201012020000078950000000078950020100302                13241
000024112331Q03  00000731000000000731000200908250000068620000000068620020081211                13241
000024112331R01 L00001244160000001244160201108110000113616000000113616020110324                13241
000024112331R02 L00001037400000001037400201012020000094740000000094740020100302                13241
000024112331R03 L00000877200000000877200200909260000091375000000091375020090825                13241
000024112331S01  00001036800000001036800201108110000094680000000094680020110324                13241
000024112331S02  00000864500000000864500201012020000078950000000078950020100302                13241
000024112331S03  00000731000000000731000200908250000068620000000068620020081211                13241
000024115011A1  W3R434300002C132539061     281608IOAB00002-4115-01SPX XORS00            OT4ISN 13241
000024115011E1  ZYPREXA                                                             0604    B1 13241
000024115011G1  59157060000310     Olanzapine Tab 5 MG                                         13241
000024115011J1  LILLY                         LILLY     ZYPREXA      TAB 5MG     ZYPR5 16508JVS13241
000024115011L1                         TABS00001000EA00001 0000000010002BLISTER   045683    YN 13241
000024115011M1  0000000500000MG         002816080420120518                                     13241
000024115011P01 C1325390610000000500000MG         OLANZAPINE                              A    13241
000024115011Q01  00000012240000001224000201108110000001118000000111800020110324                13241
000024115011Q02  00000010210000001021000201012020000000932000000093200020100302                13241
000024115011Q03  00000008630000000863000200908250000000810000000081000020081211                13241
000024115011R01 L00000014690000001469000201108110000001342000000134200020110324                13241
000024115011R02 L00000012250000001225000201012020000001118000000111800020100302                13241
000024115011R03 L00000010360000001036000200909260000001079000000107900020090825                13241
000024115011S01  00000012240000001224000201108110000001118000000111800020110324                13241
000024115011S02  00000010210000001021000201012020000000932000000093200020100302                13241
000024115011S03  00000008630000000863000200908250000000810000000081000020081211                13241
000024115041A1  AF55X9000002C132539061     281608IOAB00002-4115-04SPX  ORS00            OT4ISN 13241
000024115041E1  ZYPREXA                                                             0604    B1 13241
000024115041G1  59157060000310     Olanzapine Tab 5 MG                                         13241
000024115041J1  LILLY                         LILLY     ZYPREXA      TAB 5MG     ZYPR5 1650800413241
000024115041L1                         TABS01000000EA00001 0000010000002BOTTLE    04568330  NN 13241
000024115041M1  0000000500000MG         002816080420120518                                     13241
000024115041P01 C1325390610000000500000MG         OLANZAPINE                              A    13241
000024115041Q01  00012237000000001223700201108110001117500000000111750020110324                13241
000024115041Q02  00010205000000001020500201012020000932000000000093200020100302                13241
000024115041Q03  00008630000000000863000200908250000810000000000081000020081211                13241
000024115041R01 L00014684400000001468440201108110001341000000000134100020110324                13241
000024115041R02 L00012246000000001224600201012020001118400000000111840020100302                13241
000024115041R03 L00010356000000001035600200909260001078750000000107875020090825                13241
000024115041S01  00012237000000001223700201108110001117500000000111750020110324                13241
000024115041S02  00010205000000001020500201012020000932000000000093200020100302                13241
000024115041S03  00008630000000000863000200908250000810000000000081000020081211                13241
000024115301A1  DSKLJEI00002C132539061     281608AOAB00002-4115-30SPX  ORS00            OT4ISN 13241
000024115301E1  ZYPREXA                                                             0604  Y B1 13241
000024115301G1  59157060000310     Olanzapine Tab 5 MG                                         13241
000024115301J1  LILLY                         LILLY     ZYPREXA      TAB 5MG     ZYPR5 1650807013241
000024115301L1                         TABS00030000EA00001 0000000300002BOTTLE    045683  04NN 13241
000024115301M1  0000000500000MG         0028160804                                             13241
000024115301P01 C1325390610000000500000MG         OLANZAPINE                              A    13241
000024115301Q01  00000367110000001223700201108110000033525000000111750020110324                13241
000024115301Q02  00000306150000001020500201012020000027960000000093200020100302                13241
000024115301Q03  00000258900000000863000200908250000024300000000081000020081211                13241
000024115301R01 L00000440530000001468433201108110000040230000000134100020110324                13241
000024115301R02 L00000367380000001224600201012020000033552000000111840020100302                13241
000024115301R03 L00000310680000001035600200909260000032363000000107876720090825                13241
000024115301S01  00000367110000001223700201108110000033525000000111750020110324                13241
000024115301S02  00000306150000001020500201012020000027960000000093200020100302                13241
000024115301S03  00000258900000000863000200908250000024300000000081000020081211                13241
000024115331A1  AD13T5300002C132539061     281608IOAB00002-4115-33SPX XORS00            OT4ISN 13241
000024115331E1  ZYPREXA                                                             0604    B1 13241
000024115331G1  59157060000310     Olanzapine Tab 5 MG                                         13241
000024115331J1  LILLY                         LILLY     ZYPREXA      TAB 5MG     ZYPR5 1650802813241
000024115331L1                         TABS00100000EA00001 0000001000002BOX       045683    NN 13241
000024115331M1  0000000500000MG         002816080420120518                                     13241
000024115331P01 C1325390610000000500000MG         OLANZAPINE                              A    13241
000024115331Q01  00001223700000001223700201108110000111750000000111750020110324                13241
000024115331Q02  00001020500000001020500201012020000093200000000093200020100302                13241
000024115331Q03  00000863000000000863000200908250000081000000000081000020081211                13241
000024115331R01 L00001468440000001468440201108110000134100000000134100020110324                13241
000024115331R02 L00001224600000001224600201012020000111840000000111840020100302                13241
000024115331R03 L00001035600000001035600200909260000107875000000107875020090825                13241
000024115331S01  00001223700000001223700201108110000111750000000111750020110324                13241
000024115331S02  00001020500000001020500201012020000093200000000093200020100302                13241
000024115331S03  00000863000000000863000200908250000081000000000081000020081211                13241
000024116011A1  GY3T34T00002C132539061     281608IOAB00002-4116-01SPX XORS00            OT4ISN 13241
000024116011E1  ZYPREXA                                                             0604    B1 13241
000024116011G1  59157060000315     Olanzapine Tab 7.5 MG                                       13241
000024116011J1  LILLY                         LILLY     ZYPREXA      TAB 7.5MG   ZYPR7516510JVS13241
000024116011L1                         TABS00001000EA00001 0000000010002BLISTER   045684    YN 13241
000024116011M1  0000000750000MG         002816080420130703                                     13241
000024116011P01 C1325390610000000750000MG         OLANZAPINE                              A    13241
000024116011Q01  00000014890000001489000201108110000001360000000136000020110324                13241
000024116011Q02  00000012420000001242000201012020000001134000000113400020100302                13241
000024116011Q03  00000010500000001050000200908250000000986000000098600020081211                13241
000024116011R01 L00000017870000001787000201108110000001632000000163200020110324                13241
000024116011R02 L00000014900000001490000201012020000001361000000136100020100302                13241
000024116011R03 L00000012600000001260000200909260000001313000000131300020090825                13241
000024116011S01  00000014890000001489000201108110000001360000000136000020110324                13241
000024116011S02  00000012420000001242000201012020000001134000000113400020100302                13241
000024116011S03  00000010500000001050000200908250000000986000000098600020081211                13241
000024116041A1  AG6670600002C132539061     281608AOAB00002-4116-04SPX  ORS00            OT4ISN 13241
000024116041E1  ZYPREXA                                                             0604  Y B1 13241
000024116041G1  59157060000315     Olanzapine Tab 7.5 MG                                       13241
000024116041J1  LILLY                         LILLY     ZYPREXA      TAB 7.5MG   ZYPR751651000413241
000024116041L1                         TABS01000000EA00001 0000010000002BOTTLE    04568460  NN 13241
000024116041M1  0000000750000MG         0028160804                                             13241
000024116041P01 C1325390610000000750000MG         OLANZAPINE                              A    13241
000024116041Q01  00014892000000001489200201108110001360000000000136000020110324                13241
000024116041Q02  00012418000000001241800201012020001134000000000113400020100302                13241
000024116041Q03  00010500000000001050000200908250000985500000000098550020081211                13241
000024116041R01 L00017870400000001787040201108110001632000000000163200020110324                13241
000024116041R02 L00014901600000001490160201012020001360800000000136080020100302                13241
000024116041R03 L00012600000000001260000200909260001312500000000131250020090825                13241
000024116041S01  00014892000000001489200201108110001360000000000136000020110324                13241
000024116041S02  00012418000000001241800201012020001134000000000113400020100302                13241
000024116041S03  00010500000000001050000200908250000985500000000098550020081211                13241
000024116301A1  HGFTYHF00002C132539061     281608AOAB00002-4116-30SPX  ORS00            OT4ISN 13241
000024116301E1  ZYPREXA                                                             0604  Y B1 13241
000024116301G1  59157060000315     Olanzapine Tab 7.5 MG                                       13241
000024116301J1  LILLY                         LILLY     ZYPREXA      TAB 7.5MG   ZYPR751651007013241
000024116301L1                         TABS00030000EA00001 0000000300002BOTTLE    045684  60NN 13241
000024116301M1  0000000750000MG         0028160804                                             13241
000024116301P01 C1325390610000000750000MG         OLANZAPINE                              A    13241
000024116301Q01  00000446760000001489200201108110000040800000000136000020110324                13241
000024116301Q02  00000372540000001241800201012020000034020000000113400020100302                13241
000024116301Q03  00000315000000001050000200908250000029565000000098550020081211                13241
000024116301R01 L00000536110000001787033201108110000048960000000163200020110324                13241
000024116301R02 L00000447050000001490167201012020000040824000000136080020100302                13241
000024116301R03 L00000378000000001260000200909260000039375000000131250020090825                13241
000024116301S01  00000446760000001489200201108110000040800000000136000020110324                13241
000024116301S02  00000372540000001241800201012020000034020000000113400020100302                13241
000024116301S03  00000315000000001050000200908250000029565000000098550020081211                13241
000024116331A1  AD13T6000002C132539061     281608IOAB00002-4116-33SPX XORS00            OT4ISN 13241
000024116331E1  ZYPREXA                                                             0604    B1 13241
000024116331G1  59157060000315     Olanzapine Tab 7.5 MG                                       13241
000024116331J1  LILLY                         LILLY     ZYPREXA      TAB 7.5MG   ZYPR751651002813241
000024116331L1                         TABS00100000EA00001 0000001000002BOX       045684    NN 13241
000024116331M1  0000000750000MG         002816080420130703                                     13241
000024116331P01 C1325390610000000750000MG         OLANZAPINE                              A    13241
000024116331Q01  00001489200000001489200201108110000136000000000136000020110324                13241
000024116331Q02  00001241800000001241800201012020000113400000000113400020100302                13241
000024116331Q03  00001050000000001050000200908250000098550000000098550020081211                13241
000024116331R01 L00001787040000001787040201108110000163200000000163200020110324                13241
000024116331R02 L00001490160000001490160201012020000136080000000136080020100302                13241
000024116331R03 L00001260000000001260000200909260000131250000000131250020090825                13241
000024116331S01  00001489200000001489200201108110000136000000000136000020110324                13241
000024116331S02  00001241800000001241800201012020000113400000000113400020100302                13241
000024116331S03  00001050000000001050000200908250000098550000000098550020081211                13241
000024117011A1  FYUIUYO00002C132539061     281608IOAB00002-4117-01SPX XORS00            OT4ISN 13241
000024117011E1  ZYPREXA                                                             0604    B1 13241
000024117011G1  59157060000320     Olanzapine Tab 10 MG                                        13241
000024117011J1  LILLY                         LILLY     ZYPREXA      TAB 10MG    ZYPR1016512JVS13241
000024117011L1                         TABS00001000EA00001 0000000010002BLISTER   045686    YN 13241
000024117011M1  0000001000000MG         002816080420120104                                     13241
000024117011P01 C1325390610000001000000MG         OLANZAPINE                              A    13241
000024117011Q01  00000018440000001844000201108110000001684000000168400020110324                13241
000024117011Q02  00000015380000001538000201012020000001404000000140400020100302                13241
000024117011Q03  00000013000000001300000200908250000001220000000122000020081211                13241
000024117011R01 L00000022130000002213000201108110000002021000000202100020110324                13241
000024117011R02 L00000018460000001846000201012020000001685000000168500020100302                13241
000024117011R03 L00000015600000001560000200909260000001625000000162500020090825                13241
000024117011S01  00000018440000001844000201108110000001684000000168400020110324                13241
000024117011S02  00000015380000001538000201012020000001404000000140400020100302                13241
000024117011S03  00000013000000001300000200908250000001220000000122000020081211                13241
000024117041A1  AF55X9500002C132539061     281608AOAB00002-4117-04SPX  ORS00            OT4ISN 13241
000024117041E1  ZYPREXA                                                             0604  Y B1 13241
000024117041G1  59157060000320     Olanzapine Tab 10 MG                                        13241
000024117041J1  LILLY                         LILLY     ZYPREXA      TAB 10MG    ZYPR101651200413241
000024117041L1                         TABS01000000EA00001 0000010000002BOTTLE    04568660  NN 13241
000024117041M1  0000001000000MG         0028160804                                             13241
000024117041P01 C1325390610000001000000MG         OLANZAPINE                              A    13241
000024117041Q01  00018440000000001844000201108110001684000000000168400020110324                13241
000024117041Q02  00015376000000001537600201012020001404000000000140400020100302                13241
000024117041Q03  00013000000000001300000200908250001220000000000122000020081211                13241
000024117041R01 L00022128000000002212800201108110002020800000000202080020110324                13241
000024117041R02 L00018451200000001845120201012020001684800000000168480020100302                13241
000024117041R03 L00015600000000001560000200909260001625000000000162500020090825                13241
000024117041S01  00018440000000001844000201108110001684000000000168400020110324                13241
000024117041S02  00015376000000001537600201012020001404000000000140400020100302                13241
000024117041S03  00013000000000001300000200908250001220000000000122000020081211                13241
000024117301A1  DSFKLJD00002C132539061     281608AOAB00002-4117-30SPX  ORS00            OT4ISN 13241
000024117301E1  ZYPREXA                                                             0604  Y B1 13241
000024117301G1  59157060000320     Olanzapine Tab 10 MG                                        13241
000024117301J1  LILLY                         LILLY     ZYPREXA      TAB 10MG    ZYPR101651207013241
000024117301L1                         TABS00030000EA00001 0000000300002BOTTLE    045686  60NN 13241
000024117301M1  0000001000000MG         0028160804                                             13241
000024117301P01 C1325390610000001000000MG         OLANZAPINE                              A    13241
000024117301Q01  00000553200000001844000201108110000050520000000168400020110324                13241
000024117301Q02  00000461280000001537600201012020000042120000000140400020100302                13241
000024117301Q03  00000390000000001300000200908250000036600000000122000020081211                13241
000024117301R01 L00000663840000002212800201108110000060624000000202080020110324                13241
000024117301R02 L00000553540000001845133201012020000050544000000168480020100302                13241
000024117301R03 L00000468000000001560000200909260000048750000000162500020090825                13241
000024117301S01  00000553200000001844000201108110000050520000000168400020110324                13241
000024117301S02  00000461280000001537600201012020000042120000000140400020100302                13241
000024117301S03  00000390000000001300000200908250000036600000000122000020081211                13241
000024117331A1  AD13T7000002C132539061     281608IOAB00002-4117-33SPX XORS00            OT4ISN 13241
000024117331E1  ZYPREXA                                                             0604    B1 13241
000024117331G1  59157060000320     Olanzapine Tab 10 MG                                        13241
000024117331J1  LILLY                         LILLY     ZYPREXA      TAB 10MG    ZYPR101651202813241
000024117331L1                         TABS00100000EA00001 0000001000002BOX       045686    NN 13241
000024117331M1  0000001000000MG         002816080420120104                                     13241
000024117331P01 C1325390610000001000000MG         OLANZAPINE                              A    13241
000024117331Q01  00001844000000001844000201108110000168400000000168400020110324                13241
000024117331Q02  00001537600000001537600201012020000140400000000140400020100302                13241
000024117331Q03  00001300000000001300000200908250000122000000000122000020081211                13241
000024117331R01 L00002212800000002212800201108110000202080000000202080020110324                13241
000024117331R02 L00001845120000001845120201012020000168480000000168480020100302                13241
000024117331R03 L00001560000000001560000200909260000162500000000162500020090825                13241
000024117331S01  00001844000000001844000201108110000168400000000168400020110324                13241
000024117331S02  00001537600000001537600201012020000140400000000140400020100302                13241
000024117331S03  00001300000000001300000200908250000122000000000122000020081211                13241
000024165021A1  AE36T0000002C082640048     681612AONR00002-4165-02R XUUORS13            NT6ISN 13241
000024165021E1  EVISTA                                                              0590  Y B1 13241
000024165021G1  30053060100320     Raloxifene HCl Tab 60 MG                                    13241
000024165021J1  LILLY                         LILLY     EVISTA       TAB 60MG    EVIS602264700113241
000024165021L1                         TABS00100000EA00001 0000001000002BOTTLE    0541333407NN 13241
000024165021M1  0000006000000MG         0068161200                                             13241
000024165021P01 C0826400480000006000000MG         RALOXIFENE HYDROCHLORIDE                A    13241
000024165021Q01  00000600600000000600600201305150000054650000000054650020121212                13241
000024165021Q02  00000501500000000501500201206270000046000000000046000020111229                13241
000024165021Q03  00000425800000000425800201103240000039050000000039050020100903                13241
000024165021R01 L00000720720000000720720201305150000065580000000065580020121212                13241
000024165021R02 L00000601800000000601800201206270000055200000000055200020111229                13241
000024165021R03 L00000510960000000510960201103240000046860000000046860020100903                13241
000024165021S01  00000600600000000600600201305150000054650000000054650020121212                13241
000024165021S02  00000501500000000501500201206270000046000000000046000020111229                13241
000024165021S03  00000425800000000425800201103240000039050000000039050020100903                13241
000024165071A1  AE72L2500002C082640048     681612AONR00002-4165-07R X  ORS13            NT6ISN 13241
000024165071E1  EVISTA                                                              0590  Y B1 13241
000024165071G1  30053060100320     Raloxifene HCl Tab 60 MG                                    13241
000024165071J1  LILLY                         LILLY     EVISTA       TAB 60MG    EVIS6022647AM213241
000024165071L1                         TABS02000000EA00001 0000020000002BOTTLE    05413302  NN 13241
000024165071M1  0000006000000MG         0068161200                                             13241
000024165071P01 C0826400480000006000000MG         RALOXIFENE HYDROCHLORIDE                A    13241
000024165071Q01  00012012000000000600600201305150001093000000000054650020121212                13241
000024165071Q02  00010030000000000501500201206270000920000000000046000020111229                13241
000024165071Q03  00008516000000000425800201103240000781000000000039050020100903                13241
000024165071R01 L00014414400000000720720201305150001311600000000065580020121212                13241
000024165071R02 L00012036000000000601800201206270001104000000000055200020111229                13241
000024165071R03 L00010219200000000510960201103240000937200000000046860020100903                13241
000024165071S01  00012012000000000600600201305150001093000000000054650020121212                13241
000024165071S02  00010030000000000501500201206270000920000000000046000020111229                13241
000024165071S03  00008516000000000425800201103240000781000000000039050020100903                13241
000024165301A1  AE35T9000002C082640048     681612AONR00002-4165-30R X UORS13            NT6ISN 13241
000024165301E1  EVISTA                                                              0590  Y B1 13241
000024165301G1  30053060100320     Raloxifene HCl Tab 60 MG                                    13241
000024165301J1  LILLY                         LILLY     EVISTA       TAB 60MG    EVIS602264704013241
000024165301L1                         TABS00030000EA00001 0000000300002BOTTLE    054133  34NN 13241
000024165301M1  0000006000000MG         0068161200                                             13241
000024165301P01 C0826400480000006000000MG         RALOXIFENE HYDROCHLORIDE                A    13241
000024165301Q01  00000180180000000600600201305150000016395000000054650020121212                13241
000024165301Q02  00000150450000000501500201206270000013800000000046000020111229                13241
000024165301Q03  00000127740000000425800201103240000011715000000039050020100903                13241
000024165301R01 L00000216220000000720733201305150000019674000000065580020121212                13241
000024165301R02 L00000180540000000601800201206270000016560000000055200020111229                13241
000024165301R03 L00000153290000000510967201103240000014058000000046860020100903                13241
000024165301S01  00000180180000000600600201305150000016395000000054650020121212                13241
000024165301S02  00000150450000000501500201206270000013800000000046000020111229                13241
000024165301S03  00000127740000000425800201103240000011715000000039050020100903                13241
000024165341A1  TYURYIT00002C082640048     681612IONR00002-4165-34R X UORS13            NT6ISN 13241
000024165341E1  EVISTA                                                              0590    B1 13241
000024165341G1  30053060100320     Raloxifene HCl Tab 60 MG                                    13241
000024165341J1  LILLY                         LILLY     EVISTA       TAB 60MG    EVIS602264703313241
000024165341L1                         TABS00030000EA00001 0000000300002BOX       0541333002NN 13241
000024165341M1  0000006000000MG         006816120020091026                                     13241
000024165341P01 C0826400480000006000000MG         RALOXIFENE HYDROCHLORIDE                A    13241
000024165341Q01  00000100860000000336200200906170000009516000000031720020080827                13241
000024165341Q02  0000008976000000029920020080714                                               13241
000024165341R01 K00000121030000000403433200909260000012608000000042026720090617                13241
000024165341R02 K00000118950000000396500200808270000011220000000037400020080714                13241
000024165341S01  00000100860000000336200200906170000009516000000031720020080827                13241
000024165341S02  0000008976000000029920020080714                                               13241
000024165791A1  AEEVISB00002C082640048     681612IONR00002-4165-79R X UORS13            NT6ISN 13241
000024165791E1  EVISTA                                                              0590    B1 13241
000024165791G1  30053060100320     Raloxifene HCl Tab 60 MG                                    13241
000024165791J1  LILLY                         LILLY     EVISTA       TAB 60MG    EVIS602264732913241
000024165791L1                         TABS00015000EA00001 0000000150002BOX       054133    YN 13241
000024165791M1  0000006000000MG         006816120020091026                                     13241
000024165791P01 C0826400480000006000000MG         RALOXIFENE HYDROCHLORIDE                A    13241
000024165791Q01  00000050430000000336200200906170000004758000000031720020080827                13241
000024165791Q02  0000004488000000029920020080714                                               13241
000024165791R01 K00000060520000000403467200909260000006304000000042026720090617                13241
000024165791R02 K00000059480000000396533200808270000005610000000037400020080714                13241
000024165791S01  00000050430000000336200200906170000004758000000031720020080827                13241
000024165791S02  0000004488000000029920020080714                                               13241
000024415011A1  4R2R4RR00002C132539061     281608AOAB00002-4415-01SPX XORS00            OT4ISN 13241
000024415011E1  ZYPREXA                                                             0604    B1 13241
000024415011G1  59157060000330     Olanzapine Tab 15 MG                                        13241
000024415011J1  LILLY                         LILLY     ZYPREXA      TAB 15MG          26884JVS13241
000024415011L1                         TABS00001000EA00001 0000000010002BLISTER   062905    YN 13241
000024415011M1  0000001500000MG         0028160804                                             13241
000024415011P01 C1325390610000001500000MG         OLANZAPINE                              A    13241
000024415011P02 C0165213830000000000000           FD&C BLUE #2 ALUMINUM LAKE              I    13241
000024415011Q01  00000027660000002766000201108110000002526000000252600020110324                13241
000024415011Q02  00000023060000002306000201012020000002106000000210600020100302                13241
000024415011Q03  00000019500000001950000200908250000001830000000183000020081211                13241
000024415011R01 L00000033190000003319000201108110000003031000000303100020110324                13241
000024415011R02 L00000027670000002767000201012020000002527000000252700020100302                13241
000024415011R03 L00000023400000002340000200909260000002438000000243800020090825                13241
000024415011S01  00000027660000002766000201108110000002526000000252600020110324                13241
000024415011S02  00000023060000002306000201012020000002106000000210600020100302                13241
000024415011S03  00000019500000001950000200908250000001830000000183000020081211                13241
000024415041A1  AF55X9800002C132539061     281608AOAB00002-4415-04SPX  ORS00            OT4ISN 13241
000024415041E1  ZYPREXA                                                             0604  Y B1 13241
000024415041G1  59157060000330     Olanzapine Tab 15 MG                                        13241
000024415041J1  LILLY                         LILLY     ZYPREXA      TAB 15MG          2688400413241
000024415041L1                         TABS01000000EA00001 0000010000002BOTTLE    06290560  NN 13241
000024415041M1  0000001500000MG         0028160804                                             13241
000024415041P01 C1325390610000001500000MG         OLANZAPINE                              A    13241
000024415041P02 C0165213830000000000000           FD&C BLUE #2 ALUMINUM LAKE              I    13241
